:03000000020A658C
:0C0A6500787FE4F6D8FD758152020AACDF
:1009960053636F7265203A00486967682053636F36
:1009A6007265203A0057656C636F6D6520746F2021
:1009B6004F62737461636C652041766F6964616E22
:1009C60063652047616D65210D0A0050726573737A
:1009D6002027512720616E6420274127206B6579E7
:1009E6007320746F206D6F76652064696E6F736116
:1009F600757220555020616E6420444F574E207406
:100A06006F2061766F6964206F62737461636C65D1
:100A1600730D0A005468652067616D652077696CFF
:100A26006C20656E64206F6E63652044696E6F731B
:100A360061757220616E64206F627361636C6520FC
:100A460077696C6C20636F6C6C6964650D0A004194
:0F0A56006C6C207468652042657374210D0A0072
:100D3E00C101C100034E00010111232020202020FB
:100D4E0020202020202020202020200011342020B0
:100D5E0020202020202020202020202020200002C3
:0B0D6E004C202002480000024A000058
:100DB400E4F5A0C282C280C2817F38FE120EB31253
:100DC4000DEB7F067E00120EB3120DEB7F0C7E003E
:100DD400120EB3120DEB7F017E00120EB3120DEB57
:070DE4007F807E00020EB3C8
:100CF3008E0F8F10D3E5109463E50F940040077CAB
:100D0300007D64120E96D3E5109409E50F9400401C
:100D130018AE0FAF107C007D64120C017E007F0AB9
:100D2300CFCDCFCECCCE120E96AE0FAF107C007DC2
:0B0D33000A120C01ED2430FF020E9D9F
:040EAF007FC07E0082
:100EB300C280C281D2828FA07F0A7E00120DEFC250
:020EC300822289
:070E9600120C01EF2430FFF4
:100E9D00D280C281D2828FA07F0A7E00120DEFC256
:020EAD0082229F
:060E22007B007A00792339
:100E28008B0F8A108911AB0FAA10A911120BE86059
:100E3800130511E5117002051014F9120BE8FF12E1
:050E48000E9D80E22276
:100EDA00758920758DF3759850D28ED2ACD2AF2217
:080EEA008F993001FDC20122C5
:100E4D008B088A09890AAB08AA09A90A120BE8605E
:100E5D0013050AE50A7002050914F9120BE8FF12D1
:050E6D000EEA80E22204
:03002300020D7A51
:100D7A00C0E0C0D0309906C299D2018028309825A7
:100D8A00859952E55264716005E552B45105755171
:100D9A0071800EE55264616005E552B441037551F4
:0A0DAA0061C298D200D0D0D0E03230
:040DEB007F047E0003
:040DEF008E0B8F0CCC
:100DF300E4F50DF50EC3E50E950CE50D950B501EB0
:100E0300120E72120AF1E4FFFE0FBF00010EBE01C3
:0E0E1300F8BF7EF5050EE50E70DB050D80D7ED
:010E210022AE
:100EC500AF47E545624785475085464585454E8F81
:040ED5004685464FB9
:010ED90022F6
:100AF100D3E549954BE548954A400685484A8549DD
:100B01004BE522B536047F0180027F00E521B52542
:100B1100047E0180027E00EE4F60557590A07F013A
:100B21007E00120EB37F807E00120EB37BFF7A0926
:100B31007996120E28120DEB7F8C7E00120EB3AF48
:100B410049AE48120CF3120DEB120EAF7BFF7A097E
:100B5100799E120E28120DEB7FCD7E00120EB3AFDF
:100B61004BAE4A120CF37FB87E0B120DEF120B72D3
:010B71002261
:100800008F088D098B0AE50970047F0180027F0043
:10081000E508640170047E0180027E00EE5FFFE562
:100820000A640170047E0180027E00EE5F6009129E
:100830000CA775322A02094FE509640170047F0193
:1008400080027F00E50870047E0180027E00EE5F7A
:10085000FFE50A70047E0180027E00EE5F600B12ED
:100860000CA775322075432A806AE50970047F0160
:1008700080027F00E50870047E0180027E00EE5F4A
:10088000FFE50A640170047E0180027E00EE5F6075
:1008900013120CA775322A754320120CAD75322045
:1008A00075432022E50970047F0180027F00E5087E
:1008B000640170047E0180027E00EE5FFFE50A7035
:1008C000047E0180027E00EE5F6015120CA7753277
:1008D00020754320120CAD75322075432A0209920F
:1008E000E509640170047F0180027F00E50864016E
:1008F00070047E0180027E00EE5FFFE50A70047ED8
:100900000180027E00EE5F6015120CA77532207523
:10091000432A120CAD753220754320020992E50975
:10092000640170047F0180027F00E50864017004A7
:100930007E0180027E00EE5FFFE50A640170047EA6
:100940000180027E00EE5F6014120CA775322075E4
:100950004320120CAD75322A7543208035E50964B9
:100960000170047F0180027F00E50870047E018031
:10097000027E00EE5FFFE50A640170047E018002E2
:100980007E00EE5F600F120CA7120CA77532207567
:060990004320120CAD2211
:100C5600E4FFFE85264C85374D74242FF8E6FDB457
:100C6600440E74252FF8E6FC74232FF8A60480069C
:100C760074232FF8A60574352FF8E6FDB4440E74D8
:100C8600362FF8E6FC74342FF8A604800674342F49
:100C9600F8A6050FBF00010EEF640F4E70BB020AE7
:010CA600F15C
:060CA700753220754320A8
:100CAD007590F07F807E00120EB3120E22120EAFE1
:100CBD007B007A007934120E287FE87E03120DEF47
:100CCD000549E54970020548E4F5907F80FE120E56
:100CDD00B3120E22120EAF7B007A007934120E2859
:060CED00120AF1020C5690
:100E7200E551249F601124F07019752544854D3683
:100E820075212A75222622854C2575364475212620
:040E920075222A2279
:100B7200E4FFFE74232FF8762074342FF876200FCA
:100B8200BF00010EEF640F4E70E975212375222319
:100B9200E4F533F544754C20754D20755171F548D7
:100BA200F549854E45854F468550477590F0120DA3
:100BB200B4120EDA7BFF7A0979AB120E4D7BFF7A03
:100BC2000979D1120E4D7BFF7A0A791A120E4D7BEA
:100BD200FF7A0A7955120E4D120EC5AB47AD46AFDC
:060BE2004512080080F23C
:100A7100020B72E493A3F8E493A34003F68001F21E
:100A810008DFF48029E493A3F85407240CC8C33386
:100A9100C4540F4420C8834004F456800146F6DF55
:100AA100E4800B0102040810204080900D3EE47E9A
:100AB100019360BCA3FF543F30E509541FFEE4934A
:100AC100A360010ECF54C025E060A840B8E493A311
:100AD100FAE493A3F8E493A3C8C582C8CAC583CA3C
:100AE100F0A3C8C582C8CAC583CADFE9DEE780BEF4
:010D79000079
:100BE800BB010689828A83E0225002E722BBFE020B
:090BF800E32289828A83E493223E
:100C0100BC000BBE0029EF8DF084FFADF022E4CCD7
:100C1100F875F008EF2FFFEE33FEEC33FCEE9DECA0
:100C2100984005FCEE9DFE0FD5F0E9E4CEFD22EDE6
:100C3100F8F5F0EE8420D21CFEADF075F008EF2F30
:100C4100FFED33FD4007985006D5F0F222C398FD21
:050C51000FD5F0EA22BE
:00000001FF
